:020000040800F2
:1000000000000120656700080B6700080D67000805
:100010000F67000811670008136700080000000060
:10002000000000000000000000000000156700084C
:100030001767000800000000196700081D67000826
:10004000B5670008B5670008B5670008B567000820
:10005000B5670008B5670008B5670008B567000810
:10006000B5670008B5670008B5670008B567000800
:10007000452C0008B5670008B5670008552C000836
:10008000B5670008652C0008B5670008B56700086B
:10009000B5670008B5670008B5670008B5670008D0
:1000A000B5670008B5670008B5670008B5670008C0
:1000B000752C00080000000000000000B567000873
:1000C000B5670008B5670008B5670008B5670008A0
:1000D000B56700083167000841670008B567000888
:1000E000B5670008B56700080000000000000000C8
:1000F0000000000000000000000000000000000000
:1001000000000000B567000800000000B5670008A7
:100110000000000000000000B5670008B567000897
:10012000B5670008B5670008B5670008B56700083F
:10013000B56700080000000000000000000000009B
:10014000B5670008B5670008B5670008B56700081F
:10015000B5670008B5670008B5670008B56700080F
:10016000B5670008B5670008B56700080000000023
:10017000B5670008B5670008B56700080000000013
:10018000B5670008B5670008B56700080000000003
:1001900001F0FF01102A2BDB10F0070F08D010F838
:1001A000013B013A8B422DD010F0070F42B3F6D13C
:1001B000F0B441EA012141EA014122F007047FF055
:1001C00000070023F0E80256083C85EA010586EAAC
:1001D000010685FA47F5A3FA87F586FA47F6A5FAE8
:1001E00087F68EB9EED1F0BC01F0FF0102F00702F4
:1001F00032B110F8013B013A83EA010313B1F8D19F
:100200000020704701387047002D06BF354603387F
:10021000073815F0010F07D1013015F4807F02BFB8
:10022000013015F4C03F0130F0BC0138704700BF09
:1002300081F0004102E000BF83F0004330B54FEA97
:1002400041044FEA430594EA050F08BF90EA020F04
:100250001FBF54EA000C55EA020C7FEA645C7FEA97
:10026000655C00F0E2804FEA5454D4EB5555B8BFBA
:100270006D420CDD2C4480EA020281EA030382EA2B
:10028000000083EA010180EA020281EA0303362DBD
:1002900088BF30BD11F0004F4FEA01314FF4801C90
:1002A0004CEA113102D0404261EB410113F0004FA2
:1002B0004FEA03334CEA133302D0524263EB430359
:1002C00094EA050F00F0A780A4F10104D5F1200EF7
:1002D0000DDB02FA0EFC22FA05F2801841F1000152
:1002E00003FA0EF2801843FA05F359410EE0A5F126
:1002F00020050EF1200E012A03FA0EFC28BF4CF057
:10030000020C43FA05F3C01851EBE37101F000450C
:1003100007D54FF0000EDCF1000C7EEB00006EEB19
:100320000101B1F5801F1BD3B1F5001F0CD34908A3
:100330005FEA30004FEA3C0C04F101044FEA4452FA
:1003400012F5800F80F09A80BCF1004F08BF5FEA81
:10035000500C50F1000041EB045141EA050130BD61
:100360005FEA4C0C404141EB0101013C28BFB1F573
:10037000801FE9D291F0000F04BF01460020B1FABE
:1003800081F308BF2033A3F10B03B3F120020CDA91
:100390000C3208DD02F1140CC2F10C0201FA0CF06F
:1003A00021FA02F10CE002F11402D8BFC2F1200CD4
:1003B00001FA02F120FA0CFCDCBF41EA0C0190408A
:1003C000E41AA2BF01EB0451294330BD6FEA0404D3
:1003D0001F3C1CDA0C340EDC04F11404C4F12002BE
:1003E00020FA04F001FA02F340EA030021FA04F3D0
:1003F00045EA030130BDC4F10C04C4F1200220FA27
:1004000002F001FA04F340EA0300294630BD21FA64
:1004100004F0294630BD94F0000F83F4801306BF2A
:1004200081F480110134013D4EE77FEA645C18BF1E
:100430007FEA655C29D094EA050F08BF90EA020FB5
:1004400005D054EA000C04BF1946104630BD91EAAD
:10045000030F1EBF0021002030BD5FEA545C05D1B0
:100460004000494128BF41F0004130BD14F58004EF
:100470003CBF01F5801130BD01F0004545F0FE4163
:1004800041F470014FF0000030BD7FEA645C1ABF98
:10049000194610467FEA655C1CBF0B46024650EACF
:1004A000013406BF52EA033591EA030F41F40021FB
:1004B00030BD00BF90F0000F04BF0021704730B581
:1004C0004FF4806404F132044FF000054FF0000156
:1004D00050E700BF90F0000F04BF0021704730B517
:1004E0004FF4806404F1320410F0004548BF4042EC
:1004F0004FF000013EE700BF42004FEAE2014FEA41
:1005000031014FEA02701FBF12F07F4393F07F4F1B
:1005100081F06051704732F07F4208BF704793F01E
:100520007F4F04BF41F40021704730B54FF4607431
:1005300001F0004521F000411CE700BF50EA010234
:1005400008BF704730B54FF000050AE050EA0102DD
:1005500008BF704730B511F0004502D5404261EB4D
:1005600041014FF4806404F132045FEA915C3FF48E
:10057000D8AE4FF003025FEADC0C18BF03325FEA2B
:10058000DC0C18BF033202EBDC02C2F1200300FADC
:1005900003FC20FA02F001FA03FE40EA0E0021FA01
:1005A00002F11444BDE600BF70B54FF0FF0C4CF4EF
:1005B000E06C1CEA11541DBF1CEA135594EA0C0FA1
:1005C00095EA0C0F00F0DEF82C4481EA030621EADC
:1005D0004C5123EA4C5350EA013518BF52EA033517
:1005E00041F4801143F4801338D0A0FB02CE4FF0C9
:1005F0000005E1FB02E506F00042E0FB03E54FF0F9
:100600000006E1FB03569CF0000F18BF4EF0010EF0
:10061000A4F1FF04B6F5007F64F5407404D25FEAEC
:100620004E0E6D4146EB060642EAC62141EA55519F
:100630004FEAC52040EA5E504FEACE2EB4F1FD0CE1
:1006400088BFBCF5E06F1ED8BEF1004F08BF5FEA5F
:10065000500E50F1000041EB045170BD06F0004611
:1006600046EA010140EA020081EA0301B4EB5C04BE
:10067000C2BFD4EB0C0541EA045170BD41F48011B6
:100680004FF0000E013C00F3AB8014F1360FDEBFDB
:10069000002001F0004170BDC4F10004203C35DAB7
:1006A0000C341BDC04F11404C4F1200500FA05F33A
:1006B00020FA04F001FA05F240EA020001F00042DB
:1006C00021F0004110EBD37021FA04F642EB060151
:1006D0005EEA430E08BF20EAD37070BDC4F10C047B
:1006E000C4F1200500FA04F320FA05F001FA04F23F
:1006F00040EA020001F0004110EBD37041F100012B
:100700005EEA430E08BF20EAD37070BDC4F1200535
:1007100000FA05F24EEA020E20FA04F301FA05F29D
:1007200043EA020321FA04F001F0004121FA04F245
:1007300020EA020000EBD3705EEA430E08BF20EA15
:10074000D37070BD94F0000F0FD101F0004640004F
:1007500041EB010111F4801F08BF013CF7D041EAD1
:10076000060195F0000F18BF704703F000465200D5
:1007700043EB030313F4801F08BF013DF7D043EAA6
:100780000603704794EA0C0F0CEA135518BF95EA5C
:100790000C0F0CD050EA410618BF52EA4306D1D1E3
:1007A00081EA030101F000414FF0000070BD50EA02
:1007B000410606BF1046194652EA430619D094EA8C
:1007C0000C0F02D150EA013613D195EA0C0F05D176
:1007D00052EA03361CBF104619460AD181EA0301CA
:1007E00001F0004141F0FE4141F470014FF0000082
:1007F00070BD41F0FE4141F4780170BD70B54FF01D
:10080000FF0C4CF4E06C1CEA11541DBF1CEA13559C
:1008100094EA0C0F95EA0C0F00F0A7F8A4EB05047E
:1008200081EA030E52EA03354FEA013100F0888075
:100830004FEA03334FF0805545EA131343EA12633E
:100840004FEA022245EA111545EA10654FEA0026F3
:100850000EF000419D4208BF964244F1FD0404F5AC
:10086000407402D25B084FEA3202B61A65EB030508
:100870005B084FEA32024FF480104FF4002CB6EBC5
:10088000020E75EB030E22BFB61A754640EA0C0045
:100890005B084FEA3202B6EB020E75EB030E22BF85
:1008A000B61A754640EA5C005B084FEA3202B6EBC6
:1008B000020E75EB030E22BFB61A754640EA9C0085
:1008C0005B084FEA3202B6EB020E75EB030E22BF55
:1008D000B61A754640EADC0055EA060E18D04FEA13
:1008E000051545EA16754FEA06164FEAC30343EAB3
:1008F00052734FEAC2025FEA1C1CC0D111F4801F80
:100900000BD141EA00014FF000004FF0004CB6E778
:1009100011F4801F04BF01430020B4F1FD0C88BF17
:10092000BCF5E06F3FF6AFAEB5EB030C04BFB6EB22
:10093000020C5FEA500C50F1000041EB045170BD15
:100940000EF0004E4EEA113114EB5C04C2BFD4EB42
:100950000C0541EA045170BD41F480114FF0000EC6
:10096000013C90E645EA060E8DE60CEA135594EA42
:100970000C0F08BF95EA0C0F3FF43BAF94EA0C0F45
:100980000AD150EA01347FF434AF95EA0C0F7FF4BA
:1009900025AF104619462CE795EA0C0F06D152EA0E
:1009A00003353FF4FDAE1046194622E750EA4106F2
:1009B00018BF52EA43067FF4C5AE50EA41047FF403
:1009C0000DAF52EA43057FF4EBAE12E74FF0FF3C68
:1009D00006E000BF4FF0010C02E000BF4FF0010C39
:1009E0004DF804CD4FEA410C7FEA6C5C4FEA430CB2
:1009F00018BF7FEA6C5C1BD001B050EA410C0CBF01
:100A000052EA430C91EA030F02BF90EA020F002062
:100A1000704710F1000F91EA030F58BF994208BFC9
:100A200090422CBFD8176FEAE37040F00100704786
:100A30004FEA410C7FEA6C5C02D150EA013C07D1DD
:100A40004FEA430C7FEA6C5CD6D152EA033CD3D028
:100A50005DF8040B704700BF8446104662468C4622
:100A60001946634600E000BF01B5FFF7B7FF002855
:100A700048BF10F1000F01BD4DF808EDFFF7F4FF7E
:100A80000CBF012000205DF808FB00BF4DF808ED09
:100A9000FFF7EAFF34BF012000205DF808FB00BF2C
:100AA0004DF808EDFFF7E0FF94BF012000205DF84E
:100AB00008FB00BF4DF808EDFFF7CEFF94BF012003
:100AC00000205DF808FB00BF4DF808EDFFF7C4FFFC
:100AD00034BF012000205DF808FB00BF4FEA410C45
:100AE0007FEA6C5C02D150EA013C0AD14FEA430C28
:100AF0007FEA6C5C02D152EA033C02D14FF0000065
:100B000070474FF0010070474FEA410212F50012A2
:100B100015D211D56FF47873B3EB625212D94FEA44
:100B2000C12343F0004343EA505311F0004F23FA2E
:100B300002F018BF404270474FF00000704750EA83
:100B4000013005D111F0004008BF6FF00040704740
:100B50004FF00000704700BF53B94AB9002908BFE1
:100B600000281CBF4FF0FF314FF0FF3000F00CB8F1
:100B7000ADF1080C6DE904CE07F098FEDDF804E055
:100B8000DDE9022304B07047704700BF10B5054C83
:100B9000237833B9044B13B10448AFF30080012329
:100BA000237010BD8000002000000000748B00083E
:100BB00008B5034B1BB103490348AFF3008008BDE0
:100BC0000000000084000020748B00080170427057
:100BD0008370704700B583B000238DF800308DF826
:100BE00001308DF802300B280DD8DFE800F0062226
:100BF0002930373E454C535A6168FF230022114685
:100C00006846FFF7E3FF009BADF804301B0C8DF83E
:100C1000063000209DF8043063F307009DF805308E
:100C200063F30F209DF8063063F3174003B05DF8BF
:100C300004FBFF237F2200216846FFF7C7FFE2E79E
:100C4000FF231A4600216846FFF7C0FFDBE77F233A
:100C5000FF2200216846FFF7B9FFD4E70023FF22F7
:100C600019466846FFF7B2FFCDE70023FF227F2138
:100C70006846FFF7ABFFC6E70023FF221146684630
:100C8000FFF7A4FFBFE700237F22FF216846FFF79D
:100C90009DFFB8E700231A46FF216846FFF796FF3D
:100CA000B1E77F230022FF216846FFF78FFFAAE705
:100CB000FF23002219466846FFF788FFA3E7FF23BA
:100CC00000227F216846FFF781FF9CE7006870479C
:100CD000037C63B10368C268134403608268934273
:100CE00013DD026000230374012343747047437CC7
:100CF0005BB10368C2689B1A03604268934204DADE
:100D00000260002343740123037470470160416053
:100D100082600122027400224274C36070472DE990
:100D2000F04395B006460D4600242C22214609A822
:100D300005F085FE0420FFF74DFF8DF82000C0F37D
:100D400007238DF82130C0F307438DF82230079434
:100D50000694059404940394029401940094234609
:100D6000224608A909A801F053F8EB68103B432B71
:100D700000F21982DFE813F044001702170217028D
:100D8000170217021702170217021702170217029B
:100D9000170217021702170217021702170217028B
:100DA000170217021702170217021702170217027B
:100DB0001702170217021702A201B401D701170286
:100DC0001702EA0117021702170217021702170289
:100DD000170217021702170217021702170217024B
:100DE000170217021702170217021702170217023B
:100DF00017021702170217025A00B3000C0165010F
:100E00002B7C4FF0000163F30F216B7C63F3070130
:100E10008CB2631E9BB2B3F5007F01D30120C3E106
:100E2000304600F069FFB4600120BDE12B7C202B2F
:100E30004ED06B7CFF2B4ED000238DF84D30AB7C19
:100E40004FF0000163F30F21EB7C63F307018AB2DB
:100E50002B7D63F30F216B7D63F307018BB2A87DBC
:100E600060F30F21E87D60F307018CB2287E60F308
:100E70000F21687E60F3070189B2A87E8DF84A00D1
:100E8000E87E8DF84B00287F8DF84C0009AF9DF867
:100E90004D0007909DF84E000690002005900490AC
:100EA00003900290019100940DF14A01384600F040
:100EB000AFFF6C460CAD0FCD0FC495E80F0084E872
:100EC0000F0097E80E00304601F0AFF801206BE10B
:100ED0008DF84E30ADE701238DF84D30AFE72B7C18
:100EE000212B4ED06B7CFF2B4ED000238DF84D3044
:100EF000AB7C4FF0000163F30F21EB7C63F3070140
:100F00008AB22B7D63F30F216B7D63F307018BB2F4
:100F1000A87D60F30F21E87D60F307018CB2287E85
:100F200060F30F21687E60F3070189B2A87E8DF817
:100F30004A00E87E8DF84B00287F8DF84C0009AF01
:100F40009DF84D0007909DF84E00069000200590FA
:100F5000049003900290019100940DF14A013846EB
:100F600000F056FF6C460CAD0FCD0FC495E80F0096
:100F700084E80F0097E80E00304601F056F8012093
:100F800012E18DF84E30ADE701238DF84D30AFE71B
:100F90002B7C222B4ED06B7CFF2B4ED000238DF868
:100FA0004D30AB7C4FF0000163F30F21EB7C63F31A
:100FB00007018AB22B7D63F30F216B7D63F3070179
:100FC0008BB2A87D60F30F21E87D60F307018CB23E
:100FD000287E60F30F21687E60F3070189B2A87E46
:100FE0008DF84A00E87E8DF84B00287F8DF84C0084
:100FF00009AF9DF84D0007909DF84E000690002027
:101000000590049003900290019100940DF14A0123
:10101000384600F0FDFE6C460CAD0FCD0FC495E8D0
:101020000F0084E80F0097E80E00304600F0FDFF47
:101030000120B9E08DF84E30ADE701238DF84D3039
:10104000AFE72B7C222B32D06B7CFF2B32D00023DE
:101050008DF84D30AB7C8DF84A30EB7C8DF84B3001
:101060002B7D8DF84C3009AF9DF84D3007939DF8DE
:101070004E30069300230593049303930293019447
:101080000094234622460DF14A01384600F0C0FE86
:101090006C460CAD0FCD0FC495E80F0084E80F002F
:1010A00097E80E00304600F0C0FF01207CE08DF88C
:1010B0004E30C9E701238DF84D30CBE72B7C4FF044
:1010C000000163F30F216B7C63F307012B7D009319
:1010D000EB7CAA7C89B2304600F0FBFD012063E086
:1010E0002B7C4FF0000163F30F216B7C63F307014E
:1010F0001FFA81F9AB7C63F30F21EB7C63F30701EB
:101100008CB295F814806F7DAD7DA14509DA00950C
:101110003B4642464946304600F0DBFD09F10109F5
:10112000F3E7012040E095F810806F7CAD7C00244F
:10113000B368A34208DD00953B464246214630464F
:1011400000F0C7FD0134F3E701202DE06423F360D4
:10115000002386F8393086F865302B7C4FF000018B
:1011600063F30F216B7C63F307018CB2B368A34276
:1011700001DA012018E04FF000080227A04510DA3C
:10118000791CEA19BB1C29442B441B7C00930B7C63
:10119000127C03374146304600F09BFD08F1010800
:1011A000ECE7012000E0002015B0BDE8F08382B03C
:1011B00001909DF804305BB99DF805207F2A01D08D
:1011C000002006E09DF80620FF2A21D0002000E044
:1011D00000201BB99DF80520FF2A1BD01BB99DF8E4
:1011E0000520FF2A1CD01BB99DF80520FF2A1ED020
:1011F0007F2B23D0FF2B2CD0FF2B35D0FF2B3ED0C5
:10120000FF2B47D0FF2B50D07F2B59D002B0704717
:101210007F20DEE79DF80620FF2ADFD1FE20DDE7F4
:101220009DF806207F2ADED140F27D10DBE79DF895
:101230000620002ADCD14FF4FE70D9E79DF8052086
:10124000FF2AD7D19DF80620002AD3D140F27B2077
:10125000D0E79DF80520FF2ACED19DF80620002A70
:10126000CAD140F2FA20C7E79DF805207F2AC5D1F0
:101270009DF80620002AC1D140F27930BEE79DF8E2
:101280000520002ABCD19DF80620002AB8D14FF4D1
:101290007E70B5E79DF80520002AB3D19DF80620A1
:1012A0007F2AAFD140F27740ACE79DF80520002AB5
:1012B000AAD19DF80620FF2AA6D140F2F640A3E766
:1012C0009DF80530002BA1D19DF80630FF2B9DD154
:1012D00040F275509AE700002DE9F84307460E46A4
:1012E00001F1FF380025A94600E00135B54219DAC1
:1012F0007C5D303CE4B2092CF7D84046FFF7EAF8B1
:1013000041EC110B9FED0A0B06F03AFA51EC100B71
:10131000FFF7FAFB14FB00F44C441FFA84F908F1C0
:10132000FF38E2E74846BDE8F88300BFAFF300802E
:1013300000000000000024400278A2F13003DBB27C
:10134000092B04D9A2F16101C9B205290FD941784D
:10135000A1F13002D2B2092A04D9A1F16100C0B2D0
:10136000052807D91801C0B21044C0B27047573AD7
:10137000D3B2ECE75739CAB2F4E710B584B00446EB
:1013800000238DF808308DF809308DF80A300629D1
:101390000FD1FFF7D1FF8DF80800A01CFFF7CCFF9D
:1013A0008DF80900201DFFF7C7FF8DF80A003CE00B
:1013B00001342378282BFBD10134002107E001F10F
:1013C00010026A4402F80C3C01340131C9B223789E
:1013D0002C2BF4D101A8FFF77FFF8DF80800023411
:1013E000002107E001F110026A4402F80C3C0134CC
:1013F0000131C9B223782C2BF4D101A8FFF76CFF7F
:101400008DF809000234002107E001F110026A445E
:1014100002F80C3C01340131C9B223782C2BF4D1F1
:1014200001A8FFF759FF8DF80A00029BADF80C30B8
:101430001B0C8DF80E3000209DF80C3063F3070074
:101440009DF80D3063F30F209DF80E3063F31740C5
:1014500004B010BD4FF0000C9C450EDA10B5845C52
:1014600011F80CE0744506D101320CF1010C9C45D9
:10147000F5DB012010BD0020FCE7012070470000D3
:101480002DE9F04F99B007460D46164600248DF819
:101490005C408DF85D408DF85E402C2221460CA802
:1014A00005F0CDFA7DE20234A4B22B5D422B7DD152
:1014B00001E00134A4B22B5D2F2BFAD10134A4B288
:1014C000002108E001F160026A4402F8403C013169
:1014D00089B20134A4B22B5D2F2BF3D108A8FFF7FA
:1014E000FBFE80460134A4B2002108E001F1600255
:1014F0006A4402F8403C013189B20134A4B22B5D48
:101500002F2BF3D108A8FFF7E7FE81460134A4B2E0
:10151000002108E001F160026A4402F8403C013118
:1015200089B20134A4B22B5D2F2BF3D108A8FFF7A9
:10153000D3FE82460134A4B2002308E003F1600127
:10154000694401F8402C01339BB20134A4B22A5DF6
:101550002F2AF3D104230022B14908A8FFF77AFF0C
:101560000DF1300B07902023069300210591049183
:1015700003910291CDF80490CDF8008001235246EA
:10158000584600F045FCEC460DF13C0EBEE80F005D
:10159000ACE80F009EE80F008CE80F009BE80E00FF
:1015A000384600F042FD01E00134A4B22B5D522B1D
:1015B000FAD101E00134A4B22B5D2F2BFAD1023411
:1015C000A4B2002108E001F160026A4402F8403C44
:1015D000013189B20134A4B22B5D2F2BF3D108A8BD
:1015E000FFF7CBFE8DF85C00C0F307238DF85D306C
:1015F000C0F307408DF85E001798FFF7D8FD8046CE
:101600000234A4B2002108E001F160026A4402F849
:10161000403C013189B20134A4B22B5D2F2BF3D1B0
:1016200008A8FFF7AAFE8DF85C00C0F307238DF829
:101630005D30C0F307408DF85E001798FFF7B7FDE7
:1016400081460134A4B2002108E001F160026A443D
:1016500002F8403C013189B20134A4B22B5D2F2B3A
:10166000F3D108A8FFF738FE82460134A4B2002364
:1016700008E003F16001694401F8402C01339BB29A
:101680000134A4B22A5D2F2AF3D104230022644935
:1016900008A8FFF7DFFE0DF1300B0790212306931A
:1016A00000210591049103910291CDF80490CDF8A9
:1016B000008001235246584600F0AAFBEC460DF18B
:1016C0003C0EBEE80F00ACE80F009EE80F008CE86F
:1016D0000F009BE80E00384600F0A7FC01E0013443
:1016E000A4B22B5D442BFAD101E00134A4B22B5DEE
:1016F0002F2BFAD10234A4B2002108E001F16002DC
:101700006A4402F8403C013189B20134A4B22B5D35
:101710002F2BF3D108A8FFF730FE8DF85C00C0F343
:1017200007238DF85D30C0F307408DF85E0001346B
:10173000A4B2002108E001F160026A4402F8403CD2
:10174000013189B20134A4B22B5D2F2BF3D108A84B
:10175000FFF7C2FD80460134A4B2002308E003F184
:101760006001694401F8402C01339BB20134A4B2FA
:101770002A5D2F2AF3D104230022294908A8FFF764
:1017800069FE0DF13009079022230693002305938B
:10179000049303930293019300930123424617A9F4
:1017A000484600F035FBEC460DF13C0EBEE80F005C
:1017B000ACE80F009EE80F008CE80F0099E80E00DF
:1017C000384600F032FC01E00134A4B22B5D572B07
:1017D000FAD101E00134A4B22B5D2F2BFAD10234EF
:1017E000A4B2002108E001F160026A4402F8403C22
:1017F000013189B20134A4B22B5D2F2BF3D108A89B
:10180000FFF7BBFD8DF85C00C0F307238DF85D305A
:10181000C0F307408DF85E000134A4B200210AE055
:10182000908B000801F160026A4402F8403C0131EB
:1018300089B20134A4B22B5D2F2BF3D108A8FFF796
:101840004BFD81460134A4B2002108E001F16002A1
:101850006A4402F8403C013189B20134A4B22B5DE4
:101860002F2BF3D108A8FFF737FD80460134A4B22F
:10187000002308E003F16001694401F8402C0133C2
:101880009BB20134A4B22A5D2F2AF3D10423002293
:101890004C4908A8FFF7DEFD0DF1300A079023231D
:1018A00006930021059104910391CDF808900191D0
:1018B000009101234246504600F0AAFAEC460DF191
:1018C0003C0EBEE80F00ACE80F009EE80F008CE86D
:1018D0000F009AE80E00384600F0A7FB01E0013443
:1018E000A4B22B5D532BFAD101E00134A4B22B5DDD
:1018F0002F2BFAD10234A4B2002108E001F16002DA
:101900006A4402F8403C013189B20134A4B22B5D33
:101910002F2BF3D108A8FFF730FD8DF85C00C0F342
:1019200007238DF85D30C0F307408DF85E00013469
:10193000A4B2002308E003F16001694401F8402CDF
:1019400001339BB20134A4B22A5D2F2AF3D10423C0
:1019500000221C4908A8FFF77DFD0DF13009079012
:101960002423069300230593049303930293019386
:1019700000930123424617A9484600F049FAEC4675
:101980000DF13C0EBEE80F00ACE80F009EE80F0022
:101990008CE80F0099E80E00384600F046FB013451
:1019A000A4B2B4420ADA2B5D262BF8D1631C9BB299
:1019B000EA5C2F2A3FF477AD1C46F0E7012019B00E
:1019C000BDE8F08F908B000820B1002242710271B7
:1019D000016082607047836801338360027922B9B5
:1019E0000268934201D30123437170470346407953
:1019F00010B11B7903B1002070470023437183604D
:101A00007047B0F82826A0F82A2600F50572C0F81D
:101A100014260022A0F8282680F83026012280F81B
:101A20002E26704708B586460846002306E00EEBD2
:101A300003024FF0000C82F814C20133B3F5806F3B
:101A4000F5DB0EF50571CEF814160023AEF8263638
:101A5000AEF828368EF830368EF831368EF83236BB
:101A60008EF82E364FF4C873CEF81C36012204F0DF
:101A700025FE08BD08B5D0F820360133C0F8203661
:101A800090F8302622B1D0F818160131C0F8181697
:101A90000AB1052B00D808BD0023A0F82636C0F8EF
:101AA0001836FFF7AEFFF6E700B54FF0000E4FF621
:101AB000FF730CE05B08013A3AB113F0010FF9D063
:101AC0004AF2010C8CEA5303F5E70EF1010E8E4544
:101AD00004DA10F80E2053400822EDE798B25DF8C2
:101AE00004FB10B503460846012283F83026002186
:101AF000C3F82016B3F828161144A3F82816B3F833
:101B000026C6D3F8141611F8014B03EB0C0E8EF811
:101B100014429444A3F826C6C3F8141604F0CEFD6C
:101B200010BD38B50C4690F814324B7090F8153251
:101B30000B7090F81632CB7090F817328B7090F8CB
:101B400018324B7190F819320B718988B1F5806F9A
:101B500045D8054690F81A32E37290F81B32A3720A
:101B600090F81C32637290F81D32237290F81E3286
:101B7000E37390F81F32A37390F82032637390F8E8
:101B80002132237300230E2207E0A81890F814C214
:101B9000E01880F810C001330132A1F11000984222
:101BA000F3DC531C2A4492F8142284F811222B44AB
:101BB00093F8143284F81032023905F50570FFF7F6
:101BC00073FFA5F82406B4F81032984209D0238890
:101BD00033B1638823B1A38813B1012000E0002052
:101BE00038BD0120FCE710B588B00446084663788C
:101BF0008DF8003023788DF80130E3788DF80230CD
:101C0000A3788DF8033063798DF8043023798DF84B
:101C10000530E37A8DF80630A37A8DF80730637AC1
:101C20008DF80830237A8DF80930E37B8DF80A307F
:101C3000A37B8DF80B30637B8DF80C30237B8DF804
:101C40000D3000220E2309E003F120010DEB010C01
:101C50004FF0FF0E0CF820EC013201330F2AF3DDB8
:101C60005A1C94F8111220336B4403F8201C94F88A
:101C7000101202F120036B4403F8201C4FF47A7316
:101C80002022694604F0B8FB08B010BD90F82E067B
:101C90007047002380F82E367047426001608360F1
:101CA0006423C360002380F8EC30704730B40468CC
:101CB0006CB185688D420ADB01EB41016254046816
:101CC0004A1CA354036802319DF808205A5430BCC2
:101CD000704730B444686CB185688D420ADB01EB13
:101CE0004101625442680A44537043680B449DF8B2
:101CF00008209A7030BC704770B582B00646002547
:101D00000FE0002400942346224629463046FFF780
:101D1000E0FF00942346224629463046FFF7C6FFDF
:101D20000135B368AB42ECDC02B070BD30B52DEDCF
:101D3000028B87B00546D0ED037AF8EEE77A9FED87
:101D40001F7A87EE878A002430E0696804EB44023A
:101D50008B188A5C07EE902AF8EE677A67EE887A2D
:101D6000FCEEE77ACDED037A5A7807EE902AF8EE8A
:101D7000677A67EE887AFCEEE77ACDED047A9B7895
:101D800007EE903AF8EE677A67EE887AFCEEE77A2B
:101D9000CDED057A9DF8143000939DF810309DF834
:101DA0000C2021462846FFF781FF0134AB68A3428F
:101DB000CBDC07B0BDEC028B30BD00BF0000C842D9
:101DC00030B585B00546039100240BE09DF80E3038
:101DD00000939DF80D309DF80C2021462846FFF712
:101DE00078FF0134AB68A342F0DC05B030BD00B52C
:101DF00085B003929DF80E3000939DF80D309DF84C
:101E00000C20FFF766FF05B05DF804FBC16070476A
:101E10002DE9F84304460D4617461E46BDF82090AE
:101E2000BDF8248042464946FEF770FFA4F81A9098
:101E3000A4F81C80A782E6829DF83C3084F8293003
:101E4000C5B1AB786A78297804F12600FEF7BEFEAA
:101E50009DF8383084F82A30BDF82830E383BDF887
:101E60002C302384BDF830306384BDF83430A38433
:101E7000BDE8F88300231A46194604F12600FEF750
:101E8000A5FEE5E784B010B588B004460BA880E84D
:101E90000E0094F8EC00092832D89DF85620A2F1E3
:101EA0002003042B27D8DFE803F0033054789C008C
:101EB0002C2303FB00F010309DF855300793069259
:101EC000BDF850300593BDF84E300493BDF84C304A
:101ED0000393BDF84A300293BDF848300193BDF832
:101EE00046300093BDF84230BDF840200DF152015C
:101EF0002044FFF78DFF94F8EC30013384F8EC3088
:101F000008B0BDE8104004B070472C2303FB00F07C
:101F100010309DF8553007930692BDF85030059368
:101F2000BDF84E300493BDF84C300393BDF84A30F1
:101F30000293BDF848300193BDF846300093BDF8D8
:101F40004230BDF840200DF152012044FFF760FF00
:101F5000D1E72C2303FB00F010309DF85530079398
:101F60000692BDF850300593BDF84E300493BDF88D
:101F70004C300393BDF84A300293BDF848300193CA
:101F8000BDF846300093BDF84230BDF840200DF159
:101F900052012044FFF73CFFADE72C2303FB00F088
:101FA00010309DF8553007930692BDF850300593D8
:101FB000BDF84E300493BDF84C300393BDF84A3061
:101FC0000293BDF848300193BDF846300093BDF848
:101FD0004230BDF840200DF152012044FFF718FFB8
:101FE00089E72C2303FB00F010309DF85530079350
:101FF0000692BDF850300593BDF84E300493BDF8FD
:102000004C300393BDF84A300293BDF84830019339
:10201000BDF846300093BDF84230BDF840200DF1C8
:1020200052012044FFF7F4FE65E784B010B588B094
:1020300004460BA880E80E009DF85620A2F120036C
:10204000042B24D8DFE803F0032B4C6D8E009DF8A1
:10205000553007930692BDF850300593BDF84E30C9
:102060000493BDF84C300393BDF84A300293BDF899
:1020700048300193BDF846300093BDF84230BDF8BA
:1020800040200DF1520104F11000FFF7C1FE20467F
:10209000FFF732FE08B0BDE8104004B070479DF86D
:1020A000553007930692BDF850300593BDF84E3079
:1020B0000493BDF84C300393BDF84A300293BDF849
:1020C00048300193BDF846300093BDF84230BDF86A
:1020D00040200DF1520104F13C00FFF799FED6E7D4
:1020E0009DF8553007930692BDF850300593BDF822
:1020F0004E300493BDF84C300393BDF84A30029340
:10210000BDF848300193BDF846300093BDF8423029
:10211000BDF840200DF1520104F16800FFF778FE90
:10212000B5E79DF8553007930692BDF850300593FA
:10213000BDF84E300493BDF84C300393BDF84A30DF
:102140000293BDF848300193BDF846300093BDF8C6
:102150004230BDF840200DF1520104F19400FFF728
:1021600057FE94E79DF8553007930692BDF850301E
:102170000593BDF84E300493BDF84C300393BDF881
:102180004A300293BDF848300193BDF846300093C1
:10219000BDF84230BDF840200DF1520104F1C000FD
:1021A000FFF736FE73E738B505460C46CB8A8A8BB7
:1021B000498BFEF7ABFD638B6B83A38BAB83A38A49
:1021C000AB82E38AEB8294F8293085F8293094F8C1
:1021D000283094F8272094F8261005F12600FEF701
:1021E000F5FC94F82A3085F82A3038BDD8B138B5D6
:1021F0000C46054649B191F8293033B10A8B8B8AD8
:102200009A4203D8238B0133238338BD0846FEF757
:102210005FFD21782846FFF7F9FD2846FFF786FD88
:1022200000232383EEE77047002800F0028170B599
:1022300082B00C46054649B191F8293033B10A8B7A
:102240008B8A9A4204D8238B0133238302B070BD5A
:102250000846FEF73DFD2046FEF738FD82B2754B7D
:10226000A3FB0213D11A03EB5100C0F38710002324
:102270008DF804308DF805308DF80630A0EBC013D2
:1022800012FA83F39EB20B2815D8DFE800F0061E81
:102290002F3F505F708091A0B1C1FEF79BFC8DF87D
:1022A0000400C0F307238DF80530C0F307408DF814
:1022B00006008DF8056001992846FFF781FD284644
:1022C000FFF734FD00232383BDE7FEF783FC8DF881
:1022D0000400C0F307238DF80530C0F307408DF8E4
:1022E000060006F17F038DF80530E4E7FEF772FC87
:1022F0008DF80400C0F307238DF80530C0F30740C4
:102300008DF80600F3438DF80630D4E7FEF762FC43
:102310008DF80400C0F307238DF80530C0F30740A3
:102320008DF80600C6F17F038DF80630C3E7FEF78F
:1023300051FC8DF80400C0F307238DF80530C0F37D
:1023400007408DF806008DF80460B4E7FEF742FC04
:102350008DF80400C0F307238DF80530C0F3074063
:102360008DF8060006F17F038DF80430A3E7FEF731
:1023700031FC8DF80400C0F307238DF80530C0F35D
:1023800007408DF80600F3438DF8053093E7FEF71C
:1023900021FC8DF80400C0F307238DF80530C0F34D
:1023A00007408DF80600C6F17F038DF8053082E7FF
:1023B000FEF710FC8DF80400C0F307238DF80530FC
:1023C000C0F307408DF806008DF8066073E7FEF74E
:1023D00001FC8DF80400C0F307238DF80530C0F32D
:1023E00007408DF8060006F17F038DF8063062E79E
:1023F000FEF7F0FB8DF80400C0F307238DF80530DD
:10240000C0F307408DF80600F3438DF8043052E71F
:10241000FEF7E0FB8DF80400C0F307238DF80530CC
:10242000C0F307408DF80600C6F17F038DF8043035
:1024300041E77047110804022DE9F04383B091F899
:10244000297017B903B0BDE8F08305460E46002396
:102450008DF800308DF801308DF802308DF80430A1
:102460008DF805308DF8063091F8283091F8272046
:1024700091F8261001A8FEF7A9FB328BB38A9A4285
:102480007DD39DF80430FF2B0ED04FF000089DF84F
:102490000530FF2B0AD04FF000099DF80630FF2BC6
:1024A00000D00027002414E0B846F0E7B946F4E76E
:1024B00000238DF8003044E000238DF801304EE019
:1024C00000238DF80230009A21462846FFF78FFC42
:1024D0000134AB68A34250D9696804EB44028B18FD
:1024E0008A5C8DF800205A788DF801209B788DF851
:1024F000023004F061F9244BA3FB00231B093222B4
:1025000002FB13037BB9B8F1000F02D0FF238DF853
:102510000030B9F1000F02D0FF238DF8013017B160
:10252000FF238DF80230B8F1000F0AD09DF800307B
:10253000282BBDD9154AA2FB0312A3EB52138DF829
:102540000030B9F1000F0AD09DF80130282BB3D923
:102550000E4AA2FB0312A3EB52138DF80130002F99
:10256000B1D09DF80230282BAAD9084AA2FB031249
:10257000A3EB52138DF80230A5E700233383338B8E
:10258000013333835EE700BF1F85EB51CDCCCCCC4C
:10259000F8B591F8293043B106460C460A8B8B8A70
:1025A0009A4203D8238B01332383F8BD0846FEF7F4
:1025B0008FFB2046FEF78AFB0746002509E0E28CE8
:1025C00094F8280042EA0042C91A3046FFF70FFC8F
:1025D0000135E38BAB420DDD15FA87F1B368994203
:1025E000EDDAE38C94F8282043EA02423046FFF704
:1025F000FEFBEDE700232383D4E760B108B591F833
:10260000293003B908BDCB8C91F8281043EA014169
:10261000FFF7D6FBF6E7704738B50546002408E01B
:102620002C2104FB01F1103129442846FFF7DEFD7F
:10263000013495F8EC30A34238DD2C2303FB04531E
:1026400093F83A30203B042BF2D801A252F823F041
:10265000212600086526000877260008892600083C
:102660009B2600082C2104FB01F110312944284647
:10267000FFF7DAFDDCE72C2104FB01F110312944DE
:102680002846FFF7D9FED3E72C2104FB01F11031D6
:1026900029442846FFF77CFFCAE72C2104FB01F1FF
:1026A000103129442846FFF7A8FFC1E738BD00BF15
:1026B00008B50E4B04221A730D4A1A604FF4C0621B
:1026C0005A60052119770B4919615A61062183F86F
:1026D0002C10094919625A62072183F83C100749F6
:1026E00019635A6300F0FCFA08BD00BF5C1A0020B1
:1026F0009C1200209C0C00209C0600209C000020C6
:1027000008B5064B93F8403003B908BD034B0122CE
:1027100083F8412000F0F2FAF7E700BF5C1A0020CE
:1027200070B42E4EB45CF55C9DF80C30F25C01EB9D
:102730004103E443ED43D243294901EB031101F185
:10274000614101F580114E01830003EB4113E9095A
:1027500046F82010A90919646909C3F880102909ED
:10276000C3F8C010E908C3F80011A908C3F8401164
:102770006908C3F88011C3F8C051E109C3F8001219
:10278000A109C3F840126109C3F880122109C3F8F6
:10279000C012E108C3F80013A108C3F84013610890
:1027A000C3F88013C3F8C043D109C3F800149109DA
:1027B000C3F840145109C3F880141109C3F8C014B8
:1027C000D108C3F800159108C3F840155108C3F8A3
:1027D0008015C3F8C02570BC704700BF988B0008F7
:1027E000FC19002070B582B005688468631C8360A2
:1027F0002A5DA61C8660EB5C03348460AD5D466890
:10280000B44206D0009589B2007BFFF789FF02B081
:1028100070BD00248460F5E7204A936C0133936413
:10282000B3F5806F02D010B5002434E013460022C7
:102830009A641B4A1168CB6843F00103CB60194BC3
:1028400019680B6823F001030B60174B19680B68BC
:1028500023F001030B60154B19680B6823F001038B
:102860000B601368DA6822F48072DA60DA6822F4A6
:102870000072DA60DA6822F48062DA600C4B1A685F
:102880004FF090439A6170470121044800EB041017
:10289000FFF7A8FF0134032CF6D910BD5C1A002005
:1028A000B01900202C190020E41800209C180020EA
:1028B0000000002038B50025374B83F840500CE06D
:1028C000354C04EB05140021A1602046FFF78AFF78
:1028D00001212046FFF786FF0135032DF0D92F4B4C
:1028E0001B682F4A934248D902F56072E02151607B
:1028F0002C4A10682A4A904243D902F560724FF47C
:1029000060215160284A1168254A91423ED902F55A
:1029100060724FF06064546030225A6042604A60D6
:1029200022490A686FF01F0010611A6842F0010224
:102930001A601C4B1A68136843F0010313601A4BAA
:102940001A68136843F0010313600B68DA6842F4F5
:102950008072DA60DA6842F40072DA60DA6842F4AF
:102960008062DA60124A1268013A4FF080414A628E
:102970001A6842F001021A6038BD0E4AE021516027
:10298000B6E70C4A4FF460215160BBE7094A4FF0AB
:1029900060645460C0E700BF5C1A00202C1900205E
:1029A00080000240E41800209C180020B01900208C
:1029B000741900200000024010B582B00D4B9A6CD3
:1029C00040F2FF339A420CD0002406E0002109486F
:1029D00000EB0410FFF706FF0134032CF6D902B018
:1029E00010BD00200090034602460146FFF798FE06
:1029F000F5E700BF5C1A002000B587B00C4BDA6C1D
:102A000042F00102DA64DB6C03F001030093009BE7
:102A1000F02301930123029300230393049301A95C
:102A20004FF0904001F01AF907B05DF804FB00BFC9
:102A3000001002402DE9F04F83B03D4B9A6C42F0FC
:102A400001029A649B6C03F001030193019B394CD2
:102A50004FF0040BC4F804B04FF0100AC4F808A0FB
:102A60000025E56025614FF40079C4F814904FF417
:102A70000063A3614FF02008C4F81C804FF4405756
:102A800027622D4B2360204600F050FF30232B4A55
:102A90002B49204600F0CEFF2A4E3462A6622A4C13
:102AA000C4F804B0C4F808A0E56080232361C4F82A
:102AB00014904FF48063A361C4F81C802762234BF9
:102AC0002360204600F032FF3023214A214920466E
:102AD00000F0B0FF7462A6621F4CC4F804B0C4F8E2
:102AE00008A0E5602561C4F814904FF40063A36169
:102AF000C4F81C802762194B2360204600F016FFA3
:102B0000174BE362174B23632A462946112000F036
:102B1000CBFE112000F0D8FE3023084A124920468F
:102B200000F0B1FFB462A66203B0BDE8F08F00BF51
:102B3000001002402C1900201C0002401800004820
:102B400004000020B0190020E418002058000240C2
:102B500028000048FC1900209C180020800002403A
:102B600019280008B9290008000000202DE9F041CB
:102B700082B02B4B9A6D42F001029A659B6D03F077
:102B800001030193019B274B1B681B0A264AA2FBEA
:102B900003231B09254A136003EB83014A00244FDA
:102BA000A7FB0217FF082349A1FB0212D608224DFA
:102BB0004FF080422A60EB6000246C616C602C61F5
:102BC000AC60284602F0FEFC224621461C2000F0A4
:102BD0006BFE1C2000F078FE18494FF06008C1F829
:102BE00000808C604F60CC600C612246284602F069
:102BF00090FD1349C1F800808C604E60CC600C6180
:102C00004C618C610422284602F083FD284602F0C4
:102C100075FB2146284602F029FE02B0BDE8F0818E
:102C20000010024010000020598B4F017419002041
:102C3000398EE33889888888B019002094190020DB
:102C40007819002008B5024800F0A5FF08BD00BFB4
:102C50002C19002008B5024800F09DFF08BD00BFF8
:102C6000E418002008B5024800F095FF08BD00BF39
:102C70009C18002008B5024802F076FB08BD00BF92
:102C8000B0190020144B5B6C0B2B03D80133124A94
:102C900053647047104B00225A64104B1B68196A2A
:102CA00041F21112114208D1196A40F24442114214
:102CB00003D11A6822F001021A604FF0804300220B
:102CC0001A60064B1A68D36823F00103D360024BE5
:102CD000012283F8402070475C1A0020B0190020C0
:102CE00008B5FFF789FEFFF7A5FEFFF73FFF024B90
:102CF000012283F8402008BD5C1A002008B5064B6D
:102D000093F8413003B908BD034B002283F84120FA
:102D1000FFF7D0FDF7E700BF5C1A002010B588B0C0
:102D20000024039404940594069407941B4BDA6CD6
:102D300042F00102DA64DA6C02F001020092009AB9
:102D4000DA6C42F00202DA64DA6C02F002020192FA
:102D5000019ADA6C42F08002DA64DB6C03F08003E3
:102D60000293029B2246F2214FF0904001F05AF864
:102D7000F2230393012304930594069403A94FF0CF
:102D8000904000F06BFF0823039303230493059402
:102D900003A9034800F062FF08B010BD0010024014
:102DA000001C004800B583B0124B9A6C42F001023F
:102DB0009A649B6C03F001030193019B002211466E
:102DC0000C2000F071FD0C2000F07EFD0022114669
:102DD0000F2000F069FD0F2000F076FD0022114663
:102DE000112000F061FD112000F06EFD03B05DF8D0
:102DF00004FB00BF0010024010B5044602680C4BF3
:102E00009A4204D022680B4B9A4208D010BD01466A
:102E10000948FEF766FE094B01221A70F2E72146C7
:102E20000748FEF75EFE054B01221A70EEE700BF71
:102E30000044004000380140D8230020A91A002097
:102E4000A01D002072B6FEE708B50F480F4B0360C7
:102E50004FF482734360002383604FF44072C2607A
:102E6000036143614FF400728261C3610362436294
:102E700083620722C26203630823436302F0D0F82F
:102E800000B908BDFFF7DEFF5C48002000380040B5
:102E900008B50B480B4B03604FF4E133436000234C
:102EA0008360C36003610C2242618361C36103627A
:102EB000436203F068FB00B908BDFFF7C3FF00BF22
:102EC000644600200038014008B50B480B4B0360F6
:102ED0004FF4E123436000238360C36003610C224D
:102EE00042618361C3610362436203F04CFB00B93A
:102EF00008BDFFF7A7FF00BFDC45002000440040ED
:102F000000B58BB0002307930893099300930193B6
:102F10000293039304930593069319484FF080425C
:102F20000260436083604FF0FF32C26003618361DF
:102F300002F048FBD8B900230793099307A910486A
:102F400002F030FDA8B960230093002201920292A2
:102F5000049269460A4802F0DCFB60B90422694623
:102F6000074802F0D6FB40B90BB05DF804FBFFF751
:102F700069FFFFF767FFFFF765FFFFF763FF00BF1C
:102F8000C447002010B596B00024139414941594EF
:102F90000C940D940E940F941094119412942C226E
:102FA000214601A803F04BFD2148224B03604460F9
:102FB00084604FF6FF73C36004614461846102F072
:102FC000D1FA00282CD1002313931493159313A93D
:102FD000174802F0E7FC28BB00220C920D920E92DB
:102FE0000F921092119212920CA9114802F054FB08
:102FF000D0B90023019302930393049305934FF4F4
:1030000000520692079308934FF0007209920A93B8
:103010000B9301A9064802F0FDFC38B916B010BDAB
:10302000FFF710FFFFF70EFFFFF70CFFFFF70AFF98
:1030300010480020002C014000B597B04422002128
:1030400005A803F0FCFC0023009301930293039373
:1030500004934FF4007001F06DF818BB0223059340
:103060004FF480720892102209920F93109301225C
:10307000119208221292072213921493159305A815
:1030800001F042F980B90F2300930321019100233D
:10309000029303930493684601F06CFC30B917B0B7
:1030A0005DF804FBFFF7CEFEFFF7CCFEFFF7CAFE8C
:1030B0002DE9804889B000F081FBFFF7BDFFFFF7E5
:1030C0002DFEFFF76FFEFFF7BFFEFFF7E1FEFFF7F4
:1030D000FBFEFFF715FFFFF755FFD04ED04C012246
:1030E0003146204603F0EAFADFF88093CD4D012205
:1030F0004946284603F0E2FACB4F4FF47A73062292
:103100003946204603F078F94FF47A73062239469F
:10311000284603F071F9FFF7CBFADFF854838023D8
:10312000C24AC3494046FEF7B8FD8023C14AC2499E
:10313000C248FEF7B2FDDFF83CA38023C04AC14974
:103140005046FEF7AAFD8023BF4AC049C048FEF79B
:10315000A4FD1421BF48FEF737FC2946A9F50570E8
:10316000FEF760FC2146A6F50570FEF75BFCBA4F42
:10317000BA4E4FF00109CDF81C902023069300248D
:1031800005940494039402943C2301934FF0280B7C
:10319000CDF800B04B46142239463046FEF738FED3
:1031A000AF4D07942123069305940494039402944D
:1031B0004FF448730193C82300934B464FF47A723F
:1031C00039462846FEF724FEA64F0794222306938D
:1031D00005940494039402946423019300944B4651
:1031E0005A46A1493846FEF713FEDFF88CB2079421
:1031F000232306930594049403940323029330231A
:10320000019300944B46642297495846FEF700FE0E
:10321000DFF868920794242306930594049403949A
:10322000029401940094234622468F494846FEF7B3
:10323000EFFD6C4606F10C0CBCE80F000FC49CE8D7
:103240000F0084E80F0096E80E004046FEF71AFED5
:10325000EE4606F10C0CBCE80F00AEE80F009CE84F
:103260000F0084E80F0096E80E007448FEF70AFE8F
:10327000EE4606F10C0CBCE80F00AEE80F009CE82F
:103280000F0084E80F0096E80E005046FEF7FAFDA6
:10329000EE4606F10C0CBCE80F00AEE80F009CE80F
:1032A0000F0084E80F0096E80E006948FEF7EAFD7B
:1032B000EC4605F10C060FCEACE80F0096E80F00C7
:1032C00084E80F0095E80E004046FEF7DBFDEC4673
:1032D00005F10C060FCEACE80F0096E80F0084E86D
:1032E0000F0095E80E005548FEF7CCFDEC4605F1C1
:1032F0000C060FCEACE80F0096E80F0084E80F0034
:1033000095E80E005046FEF7BDFDEC4605F10C06B3
:103310000FCEACE80F0096E80F0084E80F0095E8A8
:103320000E004B48FEF7AEFD6E4607F10C050FCDC3
:103330000FC695E80F0084E80F0097E80E0040469E
:10334000FEF7A0FD6E4607F10C050FCD0FC695E800
:103350000F0084E80F0097E80E003848FEF792FD52
:103360006E4607F10C050FCD0FC695E80F0084E8F7
:103370000F0097E80E005046FEF784FD6E4607F1F9
:103380000C050FCD0FC695E80F0084E80F0097E8F5
:103390000E002F48FEF776FD6E460BF10C050FCDA3
:1033A0000FC695E80F0084E80F009BE80E0040462A
:1033B000FEF768FD6E460BF10C050FCD0FC695E8C4
:1033C0000F0084E80F009BE80E001C48FEF75AFD32
:1033D0006E460BF10C050FCD0FC695E80F0084E883
:1033E0000F009BE80E005046FEF74CFD6E460BF1B9
:1033F0000C050FCD0FC695E80F0084E80F009BE881
:103400000E001348FEF73EFD6E4609F10C050FCD88
:103410000FC695E80F0084E80F0031E0B41F0020CC
:1034200064460020DC450020988C0008103C0020F9
:103430009C120020103600209C0C0020F04300203D
:10344000103000209C060020102A00209C00002044
:1034500010420020D0450020AC1A0020741D00202E
:10346000481D00201C1D002008000020EC25002025
:10347000E044002000430020F01C0020C41C002079
:1034800099E80E004046FEF7FDFC6E4609F10C057A
:103490000FCD0FC695E80F0084E80F0099E80E00E5
:1034A000A048FEF7EFFC6E4609F10C050FCD0FC6E4
:1034B00095E80F0084E80F0099E80E005046FEF7EB
:1034C000E1FC6E4609F10C050FCD0FC695E80F0023
:1034D00084E80F0099E80E009348FEF7D3FC934B65
:1034E0001C4619684046FEF76BFC21688D48FEF7C4
:1034F00067FC21685046FEF763FC21688A48FEF7A6
:103500005FFC4046FEF712FC8648FEF70FFC504673
:10351000FEF70CFC8448FEF709FC854C8822214606
:103520004046FDF7ADFF882221467E48FDF7A8FF03
:10353000882221465046FDF7A3FF7E4B1B7803BB34
:103540007D48FEF7A3FB002834D17C48FEF79EFBA4
:10355000002865D17A48FEF749FA0028EDD079486D
:10356000FEF7E4FB6F48FEF7E1FB7748FEF7DEFB72
:103570006D48FEF7DBFBFFF7C3F87148FEF73DFA35
:10358000DBE76E48FEF776FA6B48FEF773FA6C4895
:10359000FEF721FA6B48FFF73FF86248FFF73CF867
:1035A0006948FFF739F86048FFF736F8614B0022A9
:1035B0001A70C5E76049B1F82A2601F5057161481E
:1035C000FDF75EFFB0B95C48FEF763FB4FF40051B6
:1035D0005E4800F02CFC5B48FEF7A8FB5148FEF764
:1035E000A5FB5948FEF7A2FB4F48FEF79FFBFFF7EC
:1035F00087F8AAE7504C04F50575B4F82A26294641
:103600004848FDF73DFFB4F82A2629464E48FDF705
:1036100037FFB4F82A2629464348FDF731FFD2E7A1
:103620004B494648FEF77DFA002834D0484B5B886A
:10363000013B042B2FD8DFE803F00349545F6A00F5
:10364000434D404C29462046FDF769FB2946354845
:10365000FDF765FB29463C48FDF761FB29463248EA
:10366000FDF75DFB04F110013A48FEF79CFD04F103
:103670003C013948FEF797FD04F168013748FEF731
:1036800092FD04F194013648FEF78DFD04F1C0016E
:103690003448FEF788FD2948FEF7FBFA4FF4005145
:1036A0002A4800F0C4FB30492948FEF79CFA254817
:1036B000FEF73CFB1B48FEF739FB2348FEF736FBC1
:1036C0001948FEF733FBFFF71BF843E71D4C204971
:1036D0002046FDF724FB04F168012048FEF763FD56
:1036E000D9E7104C1A492046FDF719FB04F168018F
:1036F0001A48FEF758FDCEE7134C15492046FDF752
:103700000EFB04F168011548FEF74DFDC3E7064CBA
:103710000F492046FDF703FB04F168010F48FEF74F
:1037200042FDB8E7F04300201042002008000020CE
:10373000A08C0008A81A0020A01D0020D82300207B
:10374000D0450020E044002000430020000800484D
:10375000B01A0020741D0020481D00201C1D0020F0
:10376000F01C0020C41C0020DC450020104B1B78FE
:103770000BB90120704710B504464FF47A70B0FBC6
:10378000F3F30C4A1068B0FBF3F000F0A1F868B94D
:103790000F2C01D901200AE0002221464FF0FF3012
:1037A00000F082F8044B1C60002000E0012010BDF6
:1037B0000B000020100000200C00002010B503209A
:1037C00000F060F80F20FFF7D1FF10B10124204670
:1037D00010BD044600F034FBF9E70000034B1B78F2
:1037E000034A11680B441360704700BF0B000020B0
:1037F000C0480020014B1868704700BFC048002037
:10380000002807DB00F01F02400901239340024A11
:1038100042F82030704700BF00E100E0002808DBDC
:103820000901C9B200F1604000F5614080F8001361
:10383000704700F00F000901C9B2014B19547047DD
:1038400014ED00E000B500F00700C0F1070CBCF17A
:10385000040F28BF4FF0040C031D062B0FD9C31E05
:103860004FF0FF3E0EFA0CF021EA000199400EFAEB
:1038700003FE22EA0E0241EA02005DF804FB002387
:10388000EEE70000074AD36823F4E0631B041B0C37
:10389000000200F4E060034343F0BF6343F40033ED
:1038A000D360704700ED00E010B50446054BD868C2
:1038B000C0F30220FFF7C6FF01462046FFF7AEFF28
:1038C00010BD00BF00ED00E008B5FFF799FF08BD8F
:1038D0000138B0F1807F0BD24FF0E0235861054AE8
:1038E000F02182F823100020986107221A617047A6
:1038F0000120704700ED00E030B4446C04F01C0C73
:10390000012404FA0CF4056C6C600468636083683D
:10391000102B05D0036899600368DA6030BC7047EB
:1039200003689A600368D960F8E70000002873D044
:1039300010B403460068394A90424AD8384A0244D3
:103940003849A1FB0212120992005A64364A1A64DD
:10395000022283F82520016821F4FF4121F0700143
:103960009A68DC6822431C6922435C6922439C6993
:103970002243DC6922431C6A22430A4302609A689C
:10398000B2F5804F1BD0196C274A91422CD0264AA1
:10399000D2F8A814586C00F01C0C0F2000FA0CF0A0
:1039A00021EA0001C2F8A814D2F8A81458685C6C87
:1039B00004F01C0C00FA0CF00143C2F8A81400201B
:1039C000D863012283F8252083F824005DF8044B96
:1039D0007047164A02441349A1FB021212099200D1
:1039E0005A64134A1A64B3E7D2F8A810586C00F06E
:1039F0001C0C0F2000FA0CF021EA0001C2F8A810FC
:103A0000D2F8A81058685C6C04F01C0C00FA0CF09A
:103A10000143C2F8A810D2E7012070470704024012
:103A2000F8FFFDBFCDCCCCCC00000240F8FBFDBFC1
:103A30000004024070B5044690F82400012820D00C
:103A4000012084F8240094F82500C0B2012804D095
:103A5000002384F82430022070BD022084F8250061
:103A60000025E5632668306820F0010030602046BC
:103A7000FFF742FF2268136843F0010313602846F2
:103A8000EAE70220E8E738B5044690F82400012868
:103A900032D0012084F8240094F82500C0B2012817
:103AA00004D0002384F82430022038BD022084F89A
:103AB00025000020E0632568286820F001002860C8
:103AC0002046FFF719FF236B5BB12268136843F0B0
:103AD0000E0313602268136843F001031360002093
:103AE000E3E72268136823F0040313602268136875
:103AF00043F00A031360EDE70220D6E790F8253083
:103B0000DBB2022B06D00423C363002380F82430E9
:103B1000012070470268136823F00E0313600268E7
:103B2000136823F001031360436C03F01C03016C62
:103B3000012202FA03F34B6080F82520002380F86D
:103B400024301846704708B590F82530DBB2022BB8
:103B500003D00423C363012008BD0268136823F067
:103B60000E0313600268136823F001031360436CB3
:103B700003F01C03016C012202FA03F34B6080F88E
:103B80002520002380F82430836B13B19847002050
:103B9000E2E70020E0E738B5036C1968046825689F
:103BA000436C03F01C0304229A400A4215D015F01E
:103BB000040F12D0236813F0200F03D1236823F0E1
:103BC00004032360436C03F01C02016C0423934044
:103BD0004B60036B03B1984738BD02229A400A42FA
:103BE0001CD015F0020F19D0236813F0200F06D156
:103BF000236823F00A032360012380F82530436CF7
:103C000003F01C02016C022393404B60002380F8F8
:103C10002430C36A002BDFD09847DDE7082202FA80
:103C200003F30B42D8D015F0080FD5D0236823F04A
:103C30000E032360436C03F01C03016C012202FAA3
:103C400003F34B60C26380F82520002380F8243002
:103C5000436B002BC0D09847BEE70000F0B583B09F
:103C6000002362E085685E000324B44025EA040571
:103C7000CC68B4402C438460456825EA0C054C6848
:103C8000C4F300149C402C4344605FE0DD08083519
:103C900050F8254003F0070C4FEA8C0C4FF00F0E44
:103CA0000EFA0CFE24EA0E0E0C6904FA0CF444EA37
:103CB0000E0440F8254060E0042400E0002404FAEB
:103CC0000EF42C430CF1020C524D45F82C40524C92
:103CD000A568D44325EA02064F6817F4801F01D077
:103CE00042EA05064C4DAE60ED6804EA05064F68F1
:103CF00017F4001F01D042EA0506474DEE606D68DB
:103D000004EA05064F6817F4003F01D042EA0506B1
:103D1000414D6E602D682C404E6816F4803F01D0F6
:103D200042EA05043C4A146001330A6832FA03F49B
:103D30006ED04FF0010C0CFA03FC1CEA0202F3D027
:103D40004C6804F00304013C012C8BD94C6804F04E
:103D50000304032C0CD0C4685D004FF0030C0CFA74
:103D600005FC24EA0C0C8C68AC4044EA0C04C460EA
:103D70004C6804F00304022C88D004684FEA430E18
:103D80004FF0030C0CFA0EFC24EA0C0C4C6804F007
:103D9000030404FA0EF444EA0C0404604C6814F4BE
:103DA000403FC1D01D4C256E45F001052566246EAF
:103DB00004F001040194019C4FEA930C0CF10205FC
:103DC000144C54F8255003F0030E4FEA8E0E0F24C6
:103DD00004FA0EF425EA0405B0F1904F3FF46EAFFB
:103DE0000F4CA0420ED004F58064A0420CD004F524
:103DF0008064A0420AD004F58064A0423FF45CAF26
:103E000007245CE701245AE7022458E7032456E715
:103E100003B0F0BD0000014000040140001002406A
:103E2000000400480AB181617047816270474369AC
:103E300001EA030221EA030141EA0241816170477C
:103E400082B00A4B1A6E42F001021A661A6E02F034
:103E500001020092009A9A6D42F080529A659B6D21
:103E600003F080530193019B02B0704700100240A1
:103E700000B589B000230393049305930693079339
:103E80000268144B9A4202D009B05DF804FB03F5B6
:103E9000EC339A6D42F480429A659A6D02F4804246
:103EA0000192019ADA6C42F00202DA64DB6C03F0F0
:103EB00002030293029B4FF4604303930223049393
:103EC000032306930523079303A90348FFF7C6FEC0
:103ED000DAE700BF00380040000400480268094BE0
:103EE0009A4200D0704782B003F564431A6E42F4E0
:103EF00000621A661B6E03F400630193019B02B01B
:103F0000704700BF002C01400368B3F1804F00D020
:103F1000704710B582B0044603F504339A6D42F041
:103F200001029A659B6D03F001030193019B3448E4
:103F3000344B036004234360102383600023C36079
:103F4000802303614FF4007343614FF40063836186
:103F50002023C3614FF440530362FFF7E7FC0028BE
:103F600045D1274B63629C622748284B036004239A
:103F70004360102383600023C360802303614FF4F8
:103F8000007343614FF4006383612023C3614FF4E6
:103F900040530362FFF7CAFC60BB1B4B23629C6269
:103FA0001B481C4B036004234360102383600023E1
:103FB000C360802303614FF4007343614FF40063D7
:103FC00083612023C3614FF440530362FFF7AEFCCB
:103FD00098B90F4BA3629C622363002211461C20F8
:103FE000FFF762FC1C20FFF76FFC02B010BDFEF76C
:103FF00029FFB6E7FEF726FFCFE7FEF723FFE8E746
:104000007C47002058000240344700201C0002403A
:10401000EC4600208000024010B5A2B0044600210A
:104020001D911E911F9120912191602205A802F0FF
:1040300006FD2368384A934204D0384A934236D06A
:1040400022B010BD0123059305A800F037FE58BB30
:10405000334B1A6E42F480421A661A6E02F48042A2
:104060000192019ADA6C42F00102DA64DB6C03F02F
:1040700001030293029B4FF4C0631D9302231E931E
:1040800000241F9403232093072321931DA94FF09D
:104090009040FFF7E3FD224621462520FFF704FC70
:1040A0002520FFF711FCCBE7FEF7CCFED0E702237B
:1040B000059305A800F002FE50BB194B9A6D42F41F
:1040C00000329A659A6D02F400320392039ADA6C18
:1040D00042F00102DA64DB6C03F001030493049BF9
:1040E0000C231D9302231E9300241F94032320936B
:1040F000072321931DA94FF09040FFF7AFFD224603
:1041000021462620FFF7D0FB2620FFF7DDFB97E7AF
:10411000FEF798FED1E700BF0038014000440040A0
:1041200000100240024B186800F4C060704700BFE6
:1041300000700040B0F5007F0FD01F4B1B6803F4E8
:10414000C063B3F5806F34D01B4A136823F4C06397
:1041500043F48063136000207047174B1B6803F41F
:10416000C063B3F5007F20D0134A136823F4C06303
:1041700043F400731360114B1B68322202FB03F3FC
:104180000F4AA2FB03239B0C013300E0013B0A4AC8
:10419000526912F4806F01D0002BF7D1064B5B6996
:1041A00013F4806F03D10020704700207047032074
:1041B00070470020704700BF0070004010000020D2
:1041C00083DE1B4330B583B00446204B9B6D13F058
:1041D000805F0BD0FFF7A6FFB0F5007F17D0802CD3
:1041E0001FD82DD0702C2DD000211BE0174DAB6DAA
:1041F00043F08053AB65AB6D03F080530193019B9B
:10420000FFF790FFAB6D23F08053AB65E4E7802CA4
:1042100003D9A02C03D9022104E0002102E00121EE
:1042200000E003210A4A136823F007030B431360DD
:10423000136803F007038B4206D1002003B030BDA2
:104240000221EFE70121EDE70120F7E7001002402E
:1042500000200240284A9368D26802F0030213F05B
:104260000C030AD00C2B06D0042B1FD0082B20D017
:104270000020024610E0012AF6D11F4A126812F00F
:10428000080F0CD11C4AD2F89420C2F303221B4918
:1042900051F8222043B100200C2B0DD07047164A54
:1042A0001268C2F30312F2E71046F5E71448002241
:1042B000F2E714480022EFE70F4BDB6803F003033B
:1042C000022B16D0032B00D10E4A0B49CB68C3F347
:1042D00002130133C868C0F3062002FB00F0B0FBF4
:1042E000F3F0CB68C3F3416301335B00B0FBF3F041
:1042F000D4E7034AE9E700BF00100240288D000818
:104300000024F40000127A00002800F01C83F0B5AD
:1043100083B00446964B9D6805F00C05DE6806F0F8
:104320000306036813F0100F5AD0E5B10C2D18D016
:10433000A369002B00F0BB808D4A136843F0010392
:104340001360FFF757FA0746894B1B6813F0020FFB
:1043500040F09A80FFF74EFAC01B0228F4D90320E0
:10436000FCE2012EE4D1824B1B6813F0020F03D054
:10437000A369002B00F0E982206A7D4B1B6813F0D3
:10438000080F5BD07A4B1B6803F0F00398425CD8AF
:10439000774B1A6842F008021A601A6822F0F0029D
:1043A000216A0A431A605A6822F47F42E16942EAAC
:1043B00001225A60002D60D0FFF74CFF6C4B9B68C8
:1043C000C3F303136B4AD35C03F01F03D8406A4B5B
:1043D00018606A4B1868FFF7C9F9002840F0BE82E0
:1043E000236813F0010F00F08180082D75D00C2D8B
:1043F00071D06368B3F5803F00F09780B3F5A02FCC
:1044000000F099805A4B1A6822F480321A601A68B8
:1044100022F480221A606368002B00F09980FFF775
:10442000E9F90746524B1B6813F4003F5ED1FFF7D2
:10443000E1F9C01B6428F5D903208FE24C4BD3F877
:1044400094301B0903F0F003A0E7FFF7BBFE002840
:1044500040F07D82464B1A6842F008021A601A68E2
:1044600022F0F002216A0A431A605A6822F47F425D
:10447000E16942EA01225A609EE7206AFFF7A2FE44
:10448000002899D0012069E2394B1A6842F00802ED
:104490001A601A6822F0F002216A0A431A605A6808
:1044A00022F47F42E16942EA01225A6098E7304AE9
:1044B000136823F001031360FFF79CF907462C4BA8
:1044C0001B6813F0020F8BD0FFF794F9C01B022872
:1044D000F5D9032042E2032E8BD1254B1B6813F440
:1044E000003F03D06368002B00F03382236813F091
:1044F000020F58D0042D45D00C2D41D0E368002B7D
:1045000077D01B4A136843F480731360FFF772F986
:104510000646174B1B6813F4806F61D1FFF76AF9E9
:10452000801B0228F5D9032018E2114A136843F4CE
:10453000803313606FE703F18043A3F53C331A68BF
:1045400042F480221A601A6842F480321A6062E7EC
:10455000FFF750F90746064B1B6813F4003FC5D020
:10456000FFF748F9C01B6428F5D90320F6E100BF26
:1045700000100240608D0008100000200C00002098
:10458000022EBBD1A44B1B6813F4806F03D0E368E9
:10459000002B00F0E081A04A536823F0F853216912
:1045A00043EA01635360236813F0080F4CD063693A
:1045B0009BB3994AD2F8943043F00103C2F8943087
:1045C000FFF718F90646944BD3F8943013F0020F16
:1045D0003AD1FFF70FF9801B0228F4D90320BDE17F
:1045E0008D4A536823F0F853216943EA016353600D
:1045F000D9E7894A136823F480731360FFF7FAF848
:104600000646854B1B6813F4806FCCD0FFF7F2F899
:10461000801B0228F5D90320A0E17F4AD2F894300C
:1046200023F00103C2F89430FFF7E4F806467A4B12
:10463000D3F8943013F0020F06D0FFF7DBF8801B9D
:104640000228F4D9032089E1236813F0040F7AD0FB
:10465000714B9B6D13F0805F36D16F4B9A6D42F0BA
:1046600080529A659B6D03F080530193019B012654
:104670006A4B1B6813F4807F28D0A368012B39D0C4
:10468000052B3FD0644BD3F8902022F00102C3F8F1
:104690009020D3F8902022F00402C3F89020A36861
:1046A000002B3DD0FFF7A6F807465B4BD3F89030C0
:1046B00013F0020F46D1FFF79DF8C01B41F288337B
:1046C0009842F2D9032049E10026D1E7534A136802
:1046D00043F480731360FFF78DF807464F4B1B6858
:1046E00013F4807FC9D1FFF785F8C01B0228F5D9E4
:1046F000032033E1484AD2F8903043F00103C2F876
:104700009030CCE7444BD3F8902042F00402C3F839
:104710009020D3F8902042F00102C3F89020BEE729
:10472000FFF768F807463C4BD3F8903013F0020FC0
:1047300008D0FFF75FF8C01B41F288339842F2D9E6
:1047400003200BE1E6B9236813F0200F35D0636A2C
:10475000E3B1314AD2F8983043F00103C2F89830FF
:10476000FFF748F806462C4BD3F8983013F0020FA9
:1047700023D1FFF73FF8801B0228F4D90320EDE096
:10478000254A936D23F080539365DCE7224AD2F8E3
:10479000983023F00103C2F89830FFF72BF8064653
:1047A0001D4BD3F8983013F0020F06D0FFF722F814
:1047B000801B0228F4D90320D0E0A36A002B00F06C
:1047C000CC80022B17D00C2D00F0CC80124A13683D
:1047D00023F080731360FFF70DF804460E4B1B683F
:1047E00013F0007F00F0A880FFF704F8001B0228F8
:1047F000F4D90320B2E0084BDB6803F00301E26A5E
:1048000091420DD00C2D00F0AB80034B1B6813F0D0
:10481000806F2FD00120A1E0001002400070004006
:1048200003F07002216B0139B2EB011FEAD103F4EE
:10483000FE42616BB2EB012FE4D103F07842A16B31
:10484000B2EBC16FDED103F4C001E26B5208013A52
:10485000B1EB425FD6D103F0C063226C5208013A3B
:10486000B3EB426FCED1404B1B6813F0007F49D0B1
:10487000002073E03C4A136823F080731360FEF756
:10488000B9FF0546384B1B6813F0007F06D0FEF7D2
:10489000B1FF401B0228F5D903205FE0324AD368FC
:1048A00032491940E36A206B013843EA0013606B18
:1048B00043EA0023E06B4008013843EA4053206C90
:1048C0004008013843EA4063A06B43EAC0631943E0
:1048D000D160136843F080731360D36843F0807332
:1048E000D360FEF787FF04461F4B1B6813F0007F61
:1048F00006D1FEF77FFF001B0228F5D903202DE02B
:1049000000202BE0184B1A6842F080721A60DA68B7
:1049100042F08072DA60FEF76DFF0446124B1B68AE
:1049200013F0007F06D1FEF765FF031B022BF5D9BC
:10493000032013E0002011E00B4AD1680C4B0B4020
:10494000D36000200AE001207047012006E001202A
:1049500004E0012002E0012000E0002003B0F0BDEF
:104960000120FBE70120F9E7001002408C809D0147
:10497000FCFFEEFE002800F0AF8070B50D46044647
:10498000594B1B6803F007038B420BD2564A13683E
:1049900023F007030B431360136803F007038B42F4
:1049A00040F09C80236813F0020F0CD0A2684F4B9C
:1049B0009B6803F0F0039A4205D94C498B6823F0B9
:1049C000F0031A438A60236813F0010F39D063683B
:1049D000032B09D0022B26D063BB444A126812F085
:1049E000020F06D1012076E0404A126812F0007FE3
:1049F00076D03E498A6822F0030213438B60FEF7AB
:104A0000F9FE0646394B9B6803F00C036268B3EB72
:104A1000820F16D0FEF7EEFE801B41F288339842DB
:104A2000F0D9032057E0314A126812F4003FE0D178
:104A3000012050E02D4A126812F4806FD9D1012074
:104A400049E0236813F0020F0CD0A268274B9B6843
:104A500003F0F0039A4205D224498B6823F0F00357
:104A60001A438A60204B1B6803F00703AB420AD944
:104A70001D4A136823F007032B431360136803F0E8
:104A80000703AB422ED1236813F0040F06D0174A58
:104A9000936823F4E063E1680B439360236813F0A9
:104AA000080F07D0114A936823F46053216943EA41
:104AB000C1039360FFF7CEFB0C4B9B68C3F303135A
:104AC0000B4AD35C03F01F03D8400A4B18600A4B13
:104AD0001868FEF74BFE70BD012070470120FAE711
:104AE0000120F8E70120F6E7002002400010024014
:104AF000608D0008100000200C000020014B186899
:104B0000704700BF1000002008B5FFF7F7FF054B06
:104B10009B68C3F30223044AD35C03F01F03D8400D
:104B200008BD00BF00100240588D000808B5FFF70F
:104B3000E5FF054B9B68C3F3C223044AD35C03F033
:104B40001F03D84008BD00BF00100240588D000868
:104B5000F8B504460D46584BDB6813F0030F17D029
:104B6000554BDB6803F003030268934201D0012632
:104B700016E0002A00F09E804F4BDB68C3F302135F
:104B800001334268934201D0012609E000261BE070
:104B90000368022B57D0032B5CD0012B02D00126D7
:104BA0003046F8BD444A126812F0020F5ED0424807
:104BB000C26822F073026168013943EA01131343AA
:104BC000C3600026002EEBD13B4A136823F08063BC
:104BD0001360FEF70FFE0746374B1B6813F0006F9C
:104BE00005D0FEF707FEC31B022BF5D90326002EC6
:104BF000D6D1002D3CD130490B6923F0784323F402
:104C0000FE43A068E268D20642EA002213430B6129
:104C1000294A136843F080631360FEF7EBFD0546F5
:104C2000254B1B6813F0006F05D1FEF7E3FD401B19
:104C30000228F5D90326002EB2D11F4A1369A169B3
:104C40000B431361ACE71C4A126812F4806FAED1BB
:104C50000126A5E7184A126812F4003FA7D1164AA8
:104C6000126812F4802FA2D1012699E70126A9E744
:104C7000012D0FD01048026922F0C06222F4FE42DA
:104C8000A16863695B08013B5B0643EA01231A43A1
:104C90000261BDE70848026922F4C00222F4FE4224
:104CA000A16823695B08013B5B0543EA01231A43C2
:104CB0000261ADE7012673E7001002402DE9F041E3
:104CC00082B00446036813F4006F25D0436CB3F53B
:104CD000000F06D0B3F5400F12D04BB10126374676
:104CE0001CE0B14AD36843F48033D360002708E066
:104CF00000210430FFF72CFF074610B106460DE0F7
:104D00000027A94AD2F8883023F44003616C0B4392
:104D1000C2F88830002601E000263746236813F4E5
:104D2000003F6BD0A04B9B6D13F0805F4CD19E4B2E
:104D30009A6D42F080529A659B6D03F08053019307
:104D4000019B4FF00108994A136843F48073136084
:104D5000FEF750FD0546954B1B6813F4807F05D187
:104D6000FEF748FD401B0228F5D90327002F40D14C
:104D70008D4BD3F8903013F4407315D0E26D9A4206
:104D800012D0894AD2F8903023F44073D2F89010B0
:104D900041F48031C2F89010D2F8901021F48031A3
:104DA000C2F89010C2F8903013F0010F0FD1002F0D
:104DB00040F0F7807C4AD2F8903023F44073E16DE4
:104DC0000B43C2F8903015E04FF00008BBE7FEF748
:104DD00011FD0546744BD3F8903013F0020FE6D165
:104DE000FEF708FD401B41F288339842F2D90327B1
:104DF000DDE73E46B8F1000F40F0DA80236813F09B
:104E0000010F08D0684AD2F8883023F00303216AE2
:104E10000B43C2F88830236813F0020F08D0624AAF
:104E2000D2F8883023F00C03616A0B43C2F8883053
:104E3000236813F0040F08D05B4AD2F8883023F0BF
:104E40003003A16A0B43C2F88830236813F0200FA7
:104E500008D0554AD2F8883023F44063E16A0B4306
:104E6000C2F88830236813F4007F08D04E4AD2F885
:104E7000883023F44023E16B0B43C2F88830236869
:104E800013F4806F08D0484AD2F8883023F44013D6
:104E9000216C0B43C2F88830236813F0400F08D010
:104EA000414AD2F8883023F44053216B0B43C2F8B7
:104EB0008830236813F0800F08D03B4AD2F888303E
:104EC00023F44043616B0B43C2F88830236813F42A
:104ED000807F08D0344AD2F8883023F44033A16B65
:104EE0000B43C2F88830236813F4005F0FD02E4ABA
:104EF000D2F8883023F04063A16C0B43C2F88830AD
:104F0000A36CB3F1006F59D0B3F1806F5BD023680D
:104F100013F4002F0FD0244AD2F8883023F04063D6
:104F2000E16C0B43C2F88830E36CB3F1006F52D0F0
:104F3000B3F1806F54D0236813F4802F0FD01A4A36
:104F4000D2F8883023F04063216D0B43C2F88830DB
:104F5000236DB3F1006F4BD0B3F1806F4DD0236858
:104F600013F4804F0CD0104AD2F8883023F040530D
:104F7000616D0B43C2F88830636DB3F1805F44D03C
:104F8000236813F4004F08D0074AD2F8883023F082
:104F90008043A16D0B43C2F88830304602B0BDE8B3
:104FA000F0813E4626E700BF00100240007000403E
:104FB0001A4A936D23F0805393651FE7D36843F437
:104FC0008013D360A3E70121201DFFF7C1FD002856
:104FD0009DD006469BE7D36843F48013D360AAE7CD
:104FE0000121201DFFF7B4FD0028A4D00646A2E74A
:104FF000D36843F48013D360B1E70121201DFFF78C
:10500000A7FD0028ABD00646A9E70221201DFFF727
:105010009FFD0028B4D00646B2E700BF0010024052
:1050200000286AD010B50446436A33B94368B3F523
:10503000827F05D00023C36102E000230361436146
:105040000023A36294F85D30002B4DD0022384F836
:105050005D302268136823F040031360E368B3F502
:10506000E06F47D90022B3F5706F04D0B3F5E06F5D
:1050700001D00023A362636803F48273A16801F482
:1050800004410B43216901F002010B43616901F006
:1050900001010B43A16901F400710B43E16901F0C7
:1050A00038010B43216A01F080010B43A16A01F42E
:1050B000005120680B430360638B03F00403616AB3
:1050C00001F010010B43616B01F008010B43E16833
:1050D00001F470610B4321681A434A600020206686
:1050E000012384F85D3010BD84F85C302046FEF763
:1050F000BFFEABE74FF48052B5E7012070470000D8
:1051000030B4026A036A23F00103036244688369CE
:1051100023F4803323F073030D681D4322F0020251
:105120008B681343144A904207D002F5A052904274
:1051300003D002F58062904205D123F00803CA68CB
:105140001A4322F004030C4A904207D002F5A05201
:10515000904203D002F58062904205D124F440745D
:105160004A6922438C691443446085614A684263FA
:10517000036230BC704700BF002C014030B4036AAA
:10518000026A22F4807202624468C26922F48032A8
:1051900022F073020D68154323F400738A6843EA12
:1051A0000223104A904207D00F4A90420BD002F5DA
:1051B000806290420FD106E023F40063CA6843EA9C
:1051C000022323F4806324F440544A6944EA02141D
:1051D0008A6944EA02144460C5614A68C263036292
:1051E00030BC7047002C01400040014030B4026ADE
:1051F000036A23F4805303624468C36923F0807315
:1052000023F4E6430D6843EA052322F400528D6837
:1052100042EA05320B4DA84207D005F5A055A84239
:1052200003D005F58065A84204D124F480444D697B
:1052300044EA85144460C3614B680364026230BC75
:10524000704700BF002C014030B4036A026A22F4A8
:10525000803202624468426D22F4803222F0700291
:105260000D682A4323F400338D6843EA05430B4D50
:10527000A84207D005F5A055A84203D005F58065E2
:10528000A84204D124F480344D6944EA05244460E2
:1052900042654A688265036230BC7047002C014059
:1052A00030B4026A036A23F4801303624468436DD6
:1052B00023F0807323F4E0430D6843EA052322F4CE
:1052C00000128D6842EA05520B4DA84207D005F541
:1052D000A055A84203D005F58065A84204D124F466
:1052E00080244D6944EA8524446043654B68C36566
:1052F000026230BC704700BF002C014090F83D3086
:10530000DBB2012B21D1022380F83D300368124A21
:1053100093420CD0B3F1804F09D002F5A0529342D2
:1053200005D01A6842F001021A600020704799689F
:105330000A4A0A40062A0AD0B2F5803F09D01A6804
:1053400042F001021A6000207047012070470020DF
:1053500070470020704700BF002C0140070001008B
:10536000704770477047704770B504460368DE6841
:105370001D6915F0020F10D016F0020F0DD06FF05E
:1053800002021A610123037703689B6913F0030F7C
:1053900064D0FFF7E6FF0023237715F0040F12D047
:1053A00016F0040F0FD023686FF004021A61022375
:1053B000237723689B6913F4407F55D02046FFF77D
:1053C000D0FF0023237715F0080F12D016F0080F36
:1053D0000FD023686FF008021A6104232377236833
:1053E000DB6913F0030F46D02046FFF7BAFF002316
:1053F000237715F0100F12D016F0100F0FD023687E
:105400006FF010021A61082323772368DB6913F415
:10541000407F37D02046FFF7A4FF0023237715F005
:10542000010F02D016F0010F33D115F4025F02D044
:1054300016F0800F35D115F4807F02D016F0800F62
:1054400037D115F0400F02D016F0400F39D115F0CA
:10545000200F02D016F0200F3BD170BDFFF780FF68
:105460002046FFF77FFF96E72046FFF779FF2046AB
:10547000FFF778FFA5E72046FFF772FF2046FFF70A
:1054800071FFB4E72046FFF76BFF2046FFF76AFF86
:10549000C3E723686FF001021A612046FDF7F2FBB3
:1054A000C3E723686FF402521A61204600F0F7FA4E
:1054B000C1E723686FF480721A61204600F0F0FAA9
:1054C000BFE723686FF040021A612046FFF74BFFE9
:1054D000BDE723686FF020021A61204600F0DEFA73
:1054E000BBE7000003681E4A904202D0B0F1804F33
:1054F00003D123F070034A681343194A90420AD03B
:10550000B0F1804F07D002F5A052904203D002F5CF
:105510008062904203D123F44073CA68134323F09E
:1055200080034A69134303608B68C3620B6883621C
:105530000B4B984207D003F5A053984203D003F5D4
:105540008063984201D10B690363012343610369BE
:1055500013F0010F03D0036923F0010303617047C7
:10556000002C014060B310B5044690F83D3013B3F1
:10557000022384F83D30214651F8040BFFF7B2FFB7
:10558000012384F8483084F83E3084F83F3084F8B2
:10559000403084F8413084F8423084F8433084F855
:1055A000443084F8453084F8463084F8473084F835
:1055B0003D30002010BD80F83C30FEF78FFCD7E76F
:1055C0000120704760B310B5044690F83D3013B326
:1055D000022384F83D30214651F8040BFFF782FF87
:1055E000012384F8483084F83E3084F83F3084F852
:1055F000403084F8413084F8423084F8433084F8F5
:10560000443084F8453084F8463084F8473084F8D4
:105610003D30002010BD80F83C30FEF775FCD7E728
:105620000120704730B4036A026A22F0100202625D
:105630004468826922F0807222F4E6420D6842EAF0
:10564000052223F020038D6843EA0513104DA8427C
:1056500007D0104DA8420BD005F58065A8420FD1A8
:1056600006E023F08003CD6843EA051323F04003EE
:1056700024F440644D6944EA85048D6944EA850454
:10568000446082614A688263036230BC704700BF35
:10569000002C01400040014090F83C30012B36D0F6
:1056A00010B50446012380F83C30142A2AD8DFE8DC
:1056B00002F00B29292910292929152929291A2914
:1056C00029291F29292924000068FFF719FD002036
:1056D00019E00068FFF7A6FF002014E00068FFF75C
:1056E0004DFD00200FE00068FFF780FD00200AE07C
:1056F0000068FFF7A9FD002005E00068FFF7D0FD76
:10570000002000E00120002384F83C3010BD02207E
:10571000704738B590F83C30012B00F09580044676
:105720000D46012380F83C30142A00F28880DFE81F
:1057300002F00B8686861F86868634868686488695
:1057400086865D86868671000068FFF7D9FC226830
:10575000936943F0080393612268936923F004037B
:1057600093612268936929690B439361002067E084
:105770000068FFF757FF2268936943F40063936161
:105780002268936923F4806393612268936929698D
:1057900043EA01239361002052E00068FFF7EEFC2A
:1057A0002268D36943F00803D3612268D36923F0E8
:1057B0000403D3612268D36929690B43D3610020B4
:1057C0003EE00068FFF712FD2268D36943F40063EE
:1057D000D3612268D36923F48063D3612268D369DB
:1057E000296943EA0123D361002029E00068FFF71B
:1057F0002BFD2268536D43F0080353652268536DF7
:1058000023F0040353652268536D29690B435365E4
:10581000002015E00068FFF743FD2268536D43F454
:10582000006353652268536D23F4806353652268D7
:10583000536D296943EA01235365002000E00120EC
:10584000002384F83C3038BD0220FCE701F01F0142
:105850004FF0010C0CFA01FC036A23EA0C0303620B
:10586000036A8A40134303627047000010B5044680
:1058700010293BD8DFE801F0093A3A3A1E3A3A3AA1
:10588000253A3A3A2C3A3A3A330090F83E30DBB2B5
:10589000013B18BF0123002B79D1102965D8DFE81F
:1058A00001F02C64646454646464586464645C64EB
:1058B0006464600090F83F30DBB2013B18BF012305
:1058C000E9E790F84030DBB2013B18BF0123E2E783
:1058D00090F84130DBB2013B18BF0123DBE790F8C1
:1058E0004230DBB2013B18BF0123D4E790F84330CC
:1058F000DBB2013B18BF0123CDE7022384F83E3021
:1059000001222068FFF7A2FF2368244A934207D0B0
:1059100002F5A052934203D002F58062934203D174
:105920005A6C42F400425A6423681C4A934220D0C5
:10593000B3F1804F1DD002F5A052934219D01A68DE
:1059400042F001021A60002022E0022384F83F3076
:10595000D6E7022384F84030D2E7022384F84130AE
:10596000CEE7022384F84230CAE7022384F84330AA
:10597000C6E799680A4A0A40062A0AD0B2F5803F6B
:1059800009D01A6842F001021A60002000E00120EC
:1059900010BD0020FCE70020FAE700BF002C01400A
:1059A0000700010090F83C20012A2FD030B40346B4
:1059B000012280F83C20022280F83D2000684268E5
:1059C0008468134DA8421CD022F070020D682A434F
:1059D00042601A680E48824206D0B2F1804F03D06E
:1059E00000F5A050824204D124F08004896821434C
:1059F0009160012283F83D20002083F83C0030BCF8
:105A0000704722F470024D682A43DDE70220704798
:105A1000002C014090F83C30012B3BD010B40246E2
:105A2000012380F83C30CB6823F44073886803433B
:105A300023F480634868034323F400630868034346
:105A400023F480530869034323F400534869034354
:105A500023F48043886A034323F47023886943EA6C
:105A6000004310680C4CA04206D04364002082F82A
:105A70003C005DF8044B704723F470034C6A43EA22
:105A8000045323F08073CC69234323F00073096A25
:105A90000B43EAE702207047002C01407047704733
:105AA0007047026852E8003F23F4907342E80031E7
:105AB0000029F6D1026802F1080353E8003F23F001
:105AC0000103083242E800310029F3D1036E012BB3
:105AD00006D02023C0F88030002303668366704719
